{
  "contractName": "Calculator",
  "abi": [
    {
      "inputs": [
        {
          "internalType": "int256",
          "name": "a",
          "type": "int256"
        },
        {
          "internalType": "int256",
          "name": "b",
          "type": "int256"
        }
      ],
      "name": "add",
      "outputs": [
        {
          "internalType": "int256",
          "name": "",
          "type": "int256"
        }
      ],
      "stateMutability": "nonpayable",
      "type": "function"
    },
    {
      "inputs": [
        {
          "internalType": "int256",
          "name": "a",
          "type": "int256"
        },
        {
          "internalType": "int256",
          "name": "b",
          "type": "int256"
        }
      ],
      "name": "subtrict",
      "outputs": [
        {
          "internalType": "int256",
          "name": "",
          "type": "int256"
        }
      ],
      "stateMutability": "nonpayable",
      "type": "function"
    },
    {
      "inputs": [
        {
          "internalType": "int256",
          "name": "a",
          "type": "int256"
        },
        {
          "internalType": "int256",
          "name": "b",
          "type": "int256"
        }
      ],
      "name": "mutiply",
      "outputs": [
        {
          "internalType": "int256",
          "name": "",
          "type": "int256"
        }
      ],
      "stateMutability": "nonpayable",
      "type": "function"
    },
    {
      "inputs": [
        {
          "internalType": "int256",
          "name": "a",
          "type": "int256"
        },
        {
          "internalType": "int256",
          "name": "b",
          "type": "int256"
        }
      ],
      "name": "divide",
      "outputs": [
        {
          "internalType": "int256",
          "name": "",
          "type": "int256"
        }
      ],
      "stateMutability": "nonpayable",
      "type": "function"
    },
    {
      "inputs": [],
      "name": "getResult",
      "outputs": [
        {
          "internalType": "int256",
          "name": "",
          "type": "int256"
        }
      ],
      "stateMutability": "view",
      "type": "function",
      "constant": true
    }
  ],
  "bytecode": "0x608060405234801561001057600080fd5b50610461806100206000396000f3fe608060405234801561001057600080fd5b50600436106100575760003560e01c80630b1648d11461005c5780639d8c63281461008c578063a5f3c23b146100bc578063de292789146100ec578063f59842361461010a575b600080fd5b610076600480360381019061007191906101fa565b61013a565b6040516100839190610249565b60405180910390f35b6100a660048036038101906100a191906101fa565b610159565b6040516100b39190610249565b60405180910390f35b6100d660048036038101906100d191906101fa565b610178565b6040516100e39190610249565b60405180910390f35b6100f4610197565b6040516101019190610249565b60405180910390f35b610124600480360381019061011f91906101fa565b6101a0565b6040516101319190610249565b60405180910390f35b600081836101489190610293565b600081905550600054905092915050565b60008183610167919061030b565b600081905550600054905092915050565b60008183610186919061034e565b600081905550600054905092915050565b60008054905090565b600081836101ae91906103c1565b600081905550600054905092915050565b600080fd5b6000819050919050565b6101d7816101c4565b81146101e257600080fd5b50565b6000813590506101f4816101ce565b92915050565b60008060408385031215610211576102106101bf565b5b600061021f858286016101e5565b9250506020610230858286016101e5565b9150509250929050565b610243816101c4565b82525050565b600060208201905061025e600083018461023a565b92915050565b7f4e487b7100000000000000000000000000000000000000000000000000000000600052601160045260246000fd5b600061029e826101c4565b91506102a9836101c4565b92508282026102b7816101c4565b91507f800000000000000000000000000000000000000000000000000000000000000084146000841216156102ef576102ee610264565b5b828205841483151761030457610303610264565b5b5092915050565b6000610316826101c4565b9150610321836101c4565b925082820390508181126000841216828213600085121516171561034857610347610264565b5b92915050565b6000610359826101c4565b9150610364836101c4565b92508282019050828112156000831216838212600084121516171561038c5761038b610264565b5b92915050565b7f4e487b7100000000000000000000000000000000000000000000000000000000600052601260045260246000fd5b60006103cc826101c4565b91506103d7836101c4565b9250826103e7576103e6610392565b5b600160000383147f8000000000000000000000000000000000000000000000000000000000000000831416156104205761041f610264565b5b82820590509291505056fea2646970667358221220ef54d3982c6e06057837416d5da1bbd4f7083283fe7ab0c85ff82c0a3e0e4da264736f6c63430008130033",
  "immutableReferences": {},
  "source": "// SPDX-License-Identifier: MIT\r\n\r\npragma solidity ^0.8.0;\r\n\r\ncontract Calculator{\r\n    int private result;\r\n\r\n    function add(int a, int b) public returns (int){\r\n        result = a + b;\r\n        return  result;\r\n    }\r\n\r\n    function subtrict(int a, int b) public returns (int){\r\n        result = a - b;\r\n        return result;\r\n    }\r\n\r\n    function mutiply(int a, int b) public returns (int){\r\n        result = a * b; \r\n        return result;\r\n    }\r\n\r\n    function divide(int a, int b) public  returns (int){\r\n        result = a / b;\r\n        return result;\r\n    }\r\n\r\n    function getResult() public view returns (int){\r\n        return result;\r\n    }\r\n\r\n\r\n}",
  "sourcePath": "D:\\WEB3.0\\Web3_Calculator\\contracts\\Calculator.sol",
  "compiler": {
    "name": "solc",
    "version": "0.8.19+commit.7dd6d404.Emscripten.clang"
  },
  "schemaVersion": "3.4.16",
  "updatedAt": "2025-09-04T16:08:36.166Z",
  "networkType": "ethereum",
  "devdoc": {
    "kind": "dev",
    "methods": {},
    "version": 1
  },
  "userdoc": {
    "kind": "user",
    "methods": {},
    "version": 1
  }
}