{
	"data": {
		"bytecode": {
			"linkReferences": {},
			"object": "6080604052348015600e575f5ffd5b5061043b8061001c5f395ff3fe608060405234801561000f575f5ffd5b5060043610610055575f3560e01c80630b1648d1146100595780639d8c632814610089578063a5f3c23b146100b9578063de292789146100e9578063f598423614610107575b5f5ffd5b610073600480360381019061006e91906101e6565b610137565b6040516100809190610233565b60405180910390f35b6100a3600480360381019061009e91906101e6565b610153565b6040516100b09190610233565b60405180910390f35b6100d360048036038101906100ce91906101e6565b61016f565b6040516100e09190610233565b60405180910390f35b6100f161018b565b6040516100fe9190610233565b60405180910390f35b610121600480360381019061011c91906101e6565b610193565b60405161012e9190610233565b60405180910390f35b5f81836101449190610279565b5f819055505f54905092915050565b5f818361016091906102ef565b5f819055505f54905092915050565b5f818361017c919061032f565b5f819055505f54905092915050565b5f5f54905090565b5f81836101a0919061039d565b5f819055505f54905092915050565b5f5ffd5b5f819050919050565b6101c5816101b3565b81146101cf575f5ffd5b50565b5f813590506101e0816101bc565b92915050565b5f5f604083850312156101fc576101fb6101af565b5b5f610209858286016101d2565b925050602061021a858286016101d2565b9150509250929050565b61022d816101b3565b82525050565b5f6020820190506102465f830184610224565b92915050565b7f4e487b71000000000000000000000000000000000000000000000000000000005f52601160045260245ffd5b5f610283826101b3565b915061028e836101b3565b925082820261029c816101b3565b91507f800000000000000000000000000000000000000000000000000000000000000084145f841216156102d3576102d261024c565b5b82820584148315176102e8576102e761024c565b5b5092915050565b5f6102f9826101b3565b9150610304836101b3565b925082820390508181125f8412168282135f8512151617156103295761032861024c565b5b92915050565b5f610339826101b3565b9150610344836101b3565b92508282019050828112155f8312168382125f84121516171561036a5761036961024c565b5b92915050565b7f4e487b71000000000000000000000000000000000000000000000000000000005f52601260045260245ffd5b5f6103a7826101b3565b91506103b2836101b3565b9250826103c2576103c1610370565b5b60015f0383147f8000000000000000000000000000000000000000000000000000000000000000831416156103fa576103f961024c565b5b82820590509291505056fea2646970667358221220f667d9c27729a040d21f4ef2a22fbb495b8e3c9886edd45441cd90f29b76ebbe64736f6c634300081e0033",
			"opcodes": "PUSH1 0x80 PUSH1 0x40 MSTORE CALLVALUE DUP1 ISZERO PUSH1 0xE JUMPI PUSH0 PUSH0 REVERT JUMPDEST POP PUSH2 0x43B DUP1 PUSH2 0x1C PUSH0 CODECOPY PUSH0 RETURN INVALID PUSH1 0x80 PUSH1 0x40 MSTORE CALLVALUE DUP1 ISZERO PUSH2 0xF JUMPI PUSH0 PUSH0 REVERT JUMPDEST POP PUSH1 0x4 CALLDATASIZE LT PUSH2 0x55 JUMPI PUSH0 CALLDATALOAD PUSH1 0xE0 SHR DUP1 PUSH4 0xB1648D1 EQ PUSH2 0x59 JUMPI DUP1 PUSH4 0x9D8C6328 EQ PUSH2 0x89 JUMPI DUP1 PUSH4 0xA5F3C23B EQ PUSH2 0xB9 JUMPI DUP1 PUSH4 0xDE292789 EQ PUSH2 0xE9 JUMPI DUP1 PUSH4 0xF5984236 EQ PUSH2 0x107 JUMPI JUMPDEST PUSH0 PUSH0 REVERT JUMPDEST PUSH2 0x73 PUSH1 0x4 DUP1 CALLDATASIZE SUB DUP2 ADD SWAP1 PUSH2 0x6E SWAP2 SWAP1 PUSH2 0x1E6 JUMP JUMPDEST PUSH2 0x137 JUMP JUMPDEST PUSH1 0x40 MLOAD PUSH2 0x80 SWAP2 SWAP1 PUSH2 0x233 JUMP JUMPDEST PUSH1 0x40 MLOAD DUP1 SWAP2 SUB SWAP1 RETURN JUMPDEST PUSH2 0xA3 PUSH1 0x4 DUP1 CALLDATASIZE SUB DUP2 ADD SWAP1 PUSH2 0x9E SWAP2 SWAP1 PUSH2 0x1E6 JUMP JUMPDEST PUSH2 0x153 JUMP JUMPDEST PUSH1 0x40 MLOAD PUSH2 0xB0 SWAP2 SWAP1 PUSH2 0x233 JUMP JUMPDEST PUSH1 0x40 MLOAD DUP1 SWAP2 SUB SWAP1 RETURN JUMPDEST PUSH2 0xD3 PUSH1 0x4 DUP1 CALLDATASIZE SUB DUP2 ADD SWAP1 PUSH2 0xCE SWAP2 SWAP1 PUSH2 0x1E6 JUMP JUMPDEST PUSH2 0x16F JUMP JUMPDEST PUSH1 0x40 MLOAD PUSH2 0xE0 SWAP2 SWAP1 PUSH2 0x233 JUMP JUMPDEST PUSH1 0x40 MLOAD DUP1 SWAP2 SUB SWAP1 RETURN JUMPDEST PUSH2 0xF1 PUSH2 0x18B JUMP JUMPDEST PUSH1 0x40 MLOAD PUSH2 0xFE SWAP2 SWAP1 PUSH2 0x233 JUMP JUMPDEST PUSH1 0x40 MLOAD DUP1 SWAP2 SUB SWAP1 RETURN JUMPDEST PUSH2 0x121 PUSH1 0x4 DUP1 CALLDATASIZE SUB DUP2 ADD SWAP1 PUSH2 0x11C SWAP2 SWAP1 PUSH2 0x1E6 JUMP JUMPDEST PUSH2 0x193 JUMP JUMPDEST PUSH1 0x40 MLOAD PUSH2 0x12E SWAP2 SWAP1 PUSH2 0x233 JUMP JUMPDEST PUSH1 0x40 MLOAD DUP1 SWAP2 SUB SWAP1 RETURN JUMPDEST PUSH0 DUP2 DUP4 PUSH2 0x144 SWAP2 SWAP1 PUSH2 0x279 JUMP JUMPDEST PUSH0 DUP2 SWAP1 SSTORE POP PUSH0 SLOAD SWAP1 POP SWAP3 SWAP2 POP POP JUMP JUMPDEST PUSH0 DUP2 DUP4 PUSH2 0x160 SWAP2 SWAP1 PUSH2 0x2EF JUMP JUMPDEST PUSH0 DUP2 SWAP1 SSTORE POP PUSH0 SLOAD SWAP1 POP SWAP3 SWAP2 POP POP JUMP JUMPDEST PUSH0 DUP2 DUP4 PUSH2 0x17C SWAP2 SWAP1 PUSH2 0x32F JUMP JUMPDEST PUSH0 DUP2 SWAP1 SSTORE POP PUSH0 SLOAD SWAP1 POP SWAP3 SWAP2 POP POP JUMP JUMPDEST PUSH0 PUSH0 SLOAD SWAP1 POP SWAP1 JUMP JUMPDEST PUSH0 DUP2 DUP4 PUSH2 0x1A0 SWAP2 SWAP1 PUSH2 0x39D JUMP JUMPDEST PUSH0 DUP2 SWAP1 SSTORE POP PUSH0 SLOAD SWAP1 POP SWAP3 SWAP2 POP POP JUMP JUMPDEST PUSH0 PUSH0 REVERT JUMPDEST PUSH0 DUP2 SWAP1 POP SWAP2 SWAP1 POP JUMP JUMPDEST PUSH2 0x1C5 DUP2 PUSH2 0x1B3 JUMP JUMPDEST DUP2 EQ PUSH2 0x1CF JUMPI PUSH0 PUSH0 REVERT JUMPDEST POP JUMP JUMPDEST PUSH0 DUP2 CALLDATALOAD SWAP1 POP PUSH2 0x1E0 DUP2 PUSH2 0x1BC JUMP JUMPDEST SWAP3 SWAP2 POP POP JUMP JUMPDEST PUSH0 PUSH0 PUSH1 0x40 DUP4 DUP6 SUB SLT ISZERO PUSH2 0x1FC JUMPI PUSH2 0x1FB PUSH2 0x1AF JUMP JUMPDEST JUMPDEST PUSH0 PUSH2 0x209 DUP6 DUP3 DUP7 ADD PUSH2 0x1D2 JUMP JUMPDEST SWAP3 POP POP PUSH1 0x20 PUSH2 0x21A DUP6 DUP3 DUP7 ADD PUSH2 0x1D2 JUMP JUMPDEST SWAP2 POP POP SWAP3 POP SWAP3 SWAP1 POP JUMP JUMPDEST PUSH2 0x22D DUP2 PUSH2 0x1B3 JUMP JUMPDEST DUP3 MSTORE POP POP JUMP JUMPDEST PUSH0 PUSH1 0x20 DUP3 ADD SWAP1 POP PUSH2 0x246 PUSH0 DUP4 ADD DUP5 PUSH2 0x224 JUMP JUMPDEST SWAP3 SWAP2 POP POP JUMP JUMPDEST PUSH32 0x4E487B7100000000000000000000000000000000000000000000000000000000 PUSH0 MSTORE PUSH1 0x11 PUSH1 0x4 MSTORE PUSH1 0x24 PUSH0 REVERT JUMPDEST PUSH0 PUSH2 0x283 DUP3 PUSH2 0x1B3 JUMP JUMPDEST SWAP2 POP PUSH2 0x28E DUP4 PUSH2 0x1B3 JUMP JUMPDEST SWAP3 POP DUP3 DUP3 MUL PUSH2 0x29C DUP2 PUSH2 0x1B3 JUMP JUMPDEST SWAP2 POP PUSH32 0x8000000000000000000000000000000000000000000000000000000000000000 DUP5 EQ PUSH0 DUP5 SLT AND ISZERO PUSH2 0x2D3 JUMPI PUSH2 0x2D2 PUSH2 0x24C JUMP JUMPDEST JUMPDEST DUP3 DUP3 SDIV DUP5 EQ DUP4 ISZERO OR PUSH2 0x2E8 JUMPI PUSH2 0x2E7 PUSH2 0x24C JUMP JUMPDEST JUMPDEST POP SWAP3 SWAP2 POP POP JUMP JUMPDEST PUSH0 PUSH2 0x2F9 DUP3 PUSH2 0x1B3 JUMP JUMPDEST SWAP2 POP PUSH2 0x304 DUP4 PUSH2 0x1B3 JUMP JUMPDEST SWAP3 POP DUP3 DUP3 SUB SWAP1 POP DUP2 DUP2 SLT PUSH0 DUP5 SLT AND DUP3 DUP3 SGT PUSH0 DUP6 SLT ISZERO AND OR ISZERO PUSH2 0x329 JUMPI PUSH2 0x328 PUSH2 0x24C JUMP JUMPDEST JUMPDEST SWAP3 SWAP2 POP POP JUMP JUMPDEST PUSH0 PUSH2 0x339 DUP3 PUSH2 0x1B3 JUMP JUMPDEST SWAP2 POP PUSH2 0x344 DUP4 PUSH2 0x1B3 JUMP JUMPDEST SWAP3 POP DUP3 DUP3 ADD SWAP1 POP DUP3 DUP2 SLT ISZERO PUSH0 DUP4 SLT AND DUP4 DUP3 SLT PUSH0 DUP5 SLT ISZERO AND OR ISZERO PUSH2 0x36A JUMPI PUSH2 0x369 PUSH2 0x24C JUMP JUMPDEST JUMPDEST SWAP3 SWAP2 POP POP JUMP JUMPDEST PUSH32 0x4E487B7100000000000000000000000000000000000000000000000000000000 PUSH0 MSTORE PUSH1 0x12 PUSH1 0x4 MSTORE PUSH1 0x24 PUSH0 REVERT JUMPDEST PUSH0 PUSH2 0x3A7 DUP3 PUSH2 0x1B3 JUMP JUMPDEST SWAP2 POP PUSH2 0x3B2 DUP4 PUSH2 0x1B3 JUMP JUMPDEST SWAP3 POP DUP3 PUSH2 0x3C2 JUMPI PUSH2 0x3C1 PUSH2 0x370 JUMP JUMPDEST JUMPDEST PUSH1 0x1 PUSH0 SUB DUP4 EQ PUSH32 0x8000000000000000000000000000000000000000000000000000000000000000 DUP4 EQ AND ISZERO PUSH2 0x3FA JUMPI PUSH2 0x3F9 PUSH2 0x24C JUMP JUMPDEST JUMPDEST DUP3 DUP3 SDIV SWAP1 POP SWAP3 SWAP2 POP POP JUMP INVALID LOG2 PUSH5 0x6970667358 0x22 SLT KECCAK256 0xF6 PUSH8 0xD9C27729A040D21F 0x4E CALLCODE LOG2 0x2F 0xBB BLOBHASH JUMPDEST DUP15 EXTCODECOPY SWAP9 DUP7 0xED 0xD4 SLOAD COINBASE 0xCD SWAP1 CALLCODE SWAP12 PUSH23 0xEBBE64736F6C634300081E003300000000000000000000 "
		},
		"gasEstimates": {
			"creation": {
				"codeDepositCost": "216600",
				"executionCost": "255",
				"totalCost": "216855"
			},
			"external": {
				"add(int256,int256)": "infinite",
				"divide(int256,int256)": "infinite",
				"getResult()": "2475",
				"mutiply(int256,int256)": "infinite",
				"subtrict(int256,int256)": "infinite"
			}
		},
		"methodIdentifiers": {
			"add(int256,int256)": "a5f3c23b",
			"divide(int256,int256)": "f5984236",
			"getResult()": "de292789",
			"mutiply(int256,int256)": "0b1648d1",
			"subtrict(int256,int256)": "9d8c6328"
		}
	},
	"abi": [
		{
			"inputs": [
				{
					"internalType": "int256",
					"name": "a",
					"type": "int256"
				},
				{
					"internalType": "int256",
					"name": "b",
					"type": "int256"
				}
			],
			"name": "add",
			"outputs": [
				{
					"internalType": "int256",
					"name": "",
					"type": "int256"
				}
			],
			"stateMutability": "nonpayable",
			"type": "function"
		},
		{
			"inputs": [
				{
					"internalType": "int256",
					"name": "a",
					"type": "int256"
				},
				{
					"internalType": "int256",
					"name": "b",
					"type": "int256"
				}
			],
			"name": "divide",
			"outputs": [
				{
					"internalType": "int256",
					"name": "",
					"type": "int256"
				}
			],
			"stateMutability": "nonpayable",
			"type": "function"
		},
		{
			"inputs": [],
			"name": "getResult",
			"outputs": [
				{
					"internalType": "int256",
					"name": "",
					"type": "int256"
				}
			],
			"stateMutability": "view",
			"type": "function"
		},
		{
			"inputs": [
				{
					"internalType": "int256",
					"name": "a",
					"type": "int256"
				},
				{
					"internalType": "int256",
					"name": "b",
					"type": "int256"
				}
			],
			"name": "mutiply",
			"outputs": [
				{
					"internalType": "int256",
					"name": "",
					"type": "int256"
				}
			],
			"stateMutability": "nonpayable",
			"type": "function"
		},
		{
			"inputs": [
				{
					"internalType": "int256",
					"name": "a",
					"type": "int256"
				},
				{
					"internalType": "int256",
					"name": "b",
					"type": "int256"
				}
			],
			"name": "subtrict",
			"outputs": [
				{
					"internalType": "int256",
					"name": "",
					"type": "int256"
				}
			],
			"stateMutability": "nonpayable",
			"type": "function"
		}
	]
}